:02000002D0002C
:1040000000400D0028700D00000006000C000501A6
:084010000401BD0B00000000DB
:04401800E86A0D0045
:10401C0009480A49884208B505D0094A824202D0AB
:10402C00121A02F007FD0748074A0021121A02F083
:10403C000FFD014808BD00BF34E40320946F0D0050
:10404C00A0E40320A0E40320F0E7032070B5074EA2
:10405C00074C02F0F1FAA41BA4080025A54200D1DC
:10406C0070BD56F8043B98470135F7E7686F0D00B3
:10407C008C6F0D0000F0D6B808B500F0FFF8BDE865
:10408C00084002F09BBA01F03FBA01F03DBA01F0D2
:10409C0043BA01F041BA0078B0FA80F04009704799
:1040AC000123037070470000014B01221A70704706
:1040BC0092E5032038B5044D042405EB041001F0FF
:1040CC00EBFC013CF9D238BDD4E4032038B5044DE7
:1040DC00042405EB041001F0DFFC013CF9D238BDDF
:1040EC00F4E5032038B5044D042405EB041001F06D
:1040FC00D3FC013CF9D238BD94E503202DE9F04303
:10410C00404B8BB093F8009000AF0E461446B9F1BB
:10411C00000F61D13C4907F1080001F008FD04F1E2
:10412C00080222F007026D46ADEB020D631C22461D
:10413C00314668467B6002F07DFC0DF804906946C0
:10414C0007F1080001F03BFD012CE84650D99DF821
:10415C0000207B68312A10D1022207F1080107F1F7
:10416C00180001F07DFD07F11801284801F01FFD32
:10417C0007F1180001F090FC7B6898F80020322AB7
:10418C0011D1022207F1080107F118007B6001F040
:10419C0067FD07F118011E4801F009FD07F1180031
:1041AC0001F07AFC7B6898F80020332A0FD10222A8
:1041BC0007F1080107F1180001F052FD154807F14D
:1041CC00180101F0F4FC07F1180001F065FC07F18F
:1041DC00080001F061FCAD462C37BD46BDE8F0830C
:1041EC000D4A0BE0322BFBD0332BF0D10B4A05E000
:1041FC00EDD19DF80030312BF4D1094A13880133ED
:10420C001380E4E793E50320716B0D00A4E4032015
:10421C00B4E40320C4E4032086E5032088E50320EE
:10422C0084E5032010B5022186B0062002F074FA52
:10423C00002302220E49009306204FF0FF3301F0B9
:10424C0031FA0C4C02F030F94FF4165102F020F90F
:10425C0002A801F0E9F80299204600F0C7FC02A878
:10426C0001F01AFC0449204600F0EFFE06B010BD28
:10427C00B5400D0024E50320FC6A0D002DE9F04F3C
:10428C00062085B002F059FABF4B1A7804460AB1E1
:10429C0000221A7084B9BD4D2B78002B00F00A81D6
:1042AC0001F02CFABA4ABB49BB482C7000F029FD2E
:1042BC004FF4FA7001F050F9B74800F0A6FB002853
:1042CC0000F05381B54DB44800F077FD2B7853B90D
:1042DC00B34BB44A1B68AF49AF481B01D25800F02E
:1042EC0010FD01232B70B04CB04FDFF8D882214663
:1042FC00384601F0A2FC002800F0F380AC4EDFF849
:10430C00B482AC4BAC4F1B883088AC4C39882468D9
:10431C001A180A44A242A24C40F001818342DFF8F1
:10432C00CCB234D98B4232D9DFF880929949D9F882
:10433C000020994800F0E5FC02F0B6F8A04901F025
:10434C0064FB02F0B1F8D9F8001001F05EFB2068B4
:10435C0049460BEB001001F01BFC964B92494FF0B9
:10436C00000A4846A3F800A0A6F800A0A7F800A0F1
:10437C0001F025FC8C49934801F021FC8A499248B4
:10438C0001F01DFC914B85F800A083F800A0338848
:10439C00B8F800209A4234D23A889A4231D2DFF8E7
:1043AC0024927C49D9F800207B4800F0AAFC02F04A
:1043BC007BF8874901F029FB02F076F8D9F8001058
:1043CC0001F023FB206849460BEB001001F0E0FBE9
:1043DC004FF0000A74497548A8F800A0A6F800A090
:1043EC00A7F800A001F0EBFB6F49484601F0E7FB92
:1043FC006D49754801F0E3FB744B85F800A083F818
:10440C0000A03B8832889A4235D2B8F800209A42F4
:10441C0031D2DFF8B4915F49D9F800205E4800F042
:10442C0070FC02F041F86B4901F0EFFA02F03CF835
:10443C00D9F8001001F0E9FA206849460BEB00109E
:10444C0001F0A6FB4FF0000A57495848A8F800A005
:10445C00A6F800A0A7F800A001F0B1FB52495948FA
:10446C0001F0ADFB5049484601F0A9FB574B85F8CC
:10447C0000A083F800A002F017F8574901F0B2FA37
:10448C0002F012F823681B015BF8031001F0BDFA6F
:10449C0023680133236002F007F82468002C0746D8
:1044AC003BDA2D2101F0A2FA61420A22384601F0D2
:1044BC00B6FA26E701F020F901232B7001F0F4FF86
:1044CC0001F097FA01F0F0FF444901F09EFA4FF425
:1044DC00FA7001F041F8424A2E492F4800F011FCC5
:1044EC00EAE62146404601F0A8FB00287FF406AF1F
:1044FC003548214601F0A1FB00287FF4FFAE334E76
:10450C003378002B7FF4FAAE364B22491A682248D6
:10451C0000F0F7FB01233370E9E62146C5E7236879
:10452C00052B1FD12049304F304E684601F0FFFA61
:10453C0000257919684601F06BFB71196846103536
:10454C0001F066FB502DF4D12949684601F064FB5B
:10455C00009A1049104800F0D4FB002368462360F1
:10456C0001F09AFA05B0BDE8F08F684600F05CFFE8
:10457C000099094800F03AFB684601F08DFA0549AC
:10458C00054800F062FDEDE792E5032093E503207A
:10459C00046B0D00FC6A0D0024E5032090E503205C
:1045AC008CE5032094E50320716B0D00A4E403203B
:1045BC0086E5032084E5032088E5032034E403200A
:1045CC001A6B0D00B4E40320C4E4032091E503202E
:1045DC002D6B0D00406B0D00536B0D000D6B0D0022
:1045EC00066B0D00E4E50320F4E50320D4E403207E
:1045FC00636C0D0037B500240021012000F0F8FE9B
:10460C00394B3A493A48009440F25B7200F0F4F8A6
:10461C00384A39493648394D02F0E2F838493948B8
:10462C0001F085FA3649384801F081FA37493848A3
:10463C0001F07DFA3549374801F079FA36493748A7
:10464C0001F075FA2B4A3649204602F0C9F8354973
:10465C00354801F06CFA3549354801F068FA3549AE
:10466C00354801F064FA3549354801F060FA3549AE
:10467C00354801F05CFA1F4A3449204602F0B0F884
:10468C0028193349103401F052FA502CF8D1194A38
:10469C003049002002F0A4F82D492F4801F047FAC8
:1046AC00144A2E492C4802F09BF829492C4801F059
:1046BC003EFA104A29492A4802F092F8244929481E
:1046CC0001F035FA0B4A2549264802F089F82649AB
:1046DC00264801F02CFA074A2049244803B0BDE8CB
:1046EC00304002F07DB800BF09410D00726B0D0027
:1046FC0024E50320A0E403205D500D00D4E4032046
:10470C00816B0D0094E50320A4E503208B6B0D0059
:10471C00B4E50320C4E50320906B0D00D4E5032021
:10472C00F1400D009C6B0D00F4E50320C86B0D00EF
:10473C0004E60320DA6B0D0014E60320136C0D0065
:10474C0024E60320236C0D0034E60320D9400D0031
:10475C00716B0D00C1400D00A4E40320A55A0D009F
:10476C00B4E40320C4E40320576C0D00E4E50320FB
:10477C0091F85C3010B50446016013B1886D00F0FF
:10478C0097FC204610BD10B5036893F85C200446D6
:10479C0012B1986D00F094FC204610BDF8B51F4680
:1047AC009DF8243004460D4616462BB1012380F8A3
:1047BC005C30583000F074FC089B23630023636367
:1047CC0006B1A66425B1294604F1380001F0F7F9C9
:1047DC00069B2365079BE069A4F84C70FF2BB8BFC0
:1047EC00FF23A4F8543008B1FFF753FCB4F854007D
:1047FC00FFF74BFCE061F8BD2DE9FF4104460025B5
:10480C00174698460E4601F0C7FC0D49E56104F1C8
:10481C00380001F08CF99DF82830A564CDE90283AD
:10482C00FF220F23CDE90032204684F85C503B4632
:10483C002A463146FFF7B2FF204604B0BDE8F081AE
:10484C00716B0D0010B50446204601F001FC0028E8
:10485C00FAD0204601F035FBC0B210BD2DE9F0476F
:10486C000546C4690F46FFF7EDFF2070EB6993F81E
:10487C0000A04FF001090AF0F00A4FF000084C4676
:10488C002846FFF7DFFF2646EB69985500F07F03BB
:10489C0013FB09F3984401340306A4B21FFA88F8F9
:1048AC004FEAC919ECD4631EBAF1300F3B7024D116
:1048BC002846EF69FFF7C6FF38552846EF69F41C08
:1048CC00FFF7C0FF0236B6B2A4B2B8550226B6B294
:1048DC00B1462746C14512D22846FFF7B3FFB5F8BB
:1048EC005430BB4288BFEB6909F1010988BFD85528
:1048FC000137BFB21FFA89F9ECE70026E7E7A8EB0E
:10490C000600B0452CBF064600263444B5F85400CA
:10491C00A4B2A0422CBF20460020BDE8F087F7B51A
:10492C008C461E461D4607460023AE4602A805F0DF
:10493C007F01BEF17F0F03F10104034488BF41F0F6
:10494C008001BEF17F0F4FEAD515E4B203F8041CC9
:10495C0010D8C4F10403D11802F803C0C4F1050344
:10496C00134401A80532934206D010F8015B03F8FA
:10497C00015BF8E72346D8E7721C2244384601F065
:10498C00CAF9054600F0BCFB621C78623244A8B23E
:10499C00131A5842584103B0F0BD13B504460146F2
:1049AC0001A8FFF7E5FEE369E0221A70E369002233
:1049BC005A70E1690222204601F0ADF9204601F05F
:1049CC00A1FB00F09DFBC4E9090001A8FFF7DBFE89
:1049DC0002B010BD0233F0B5044698B20023CD5C92
:1049EC0055B1B4F85460864203F1010704D9461C52
:1049FC0015543B46B0B2F2E799B2441A224409125C
:104A0C0002F8021C02F8013CF0BD38B5044601F076
:104A1C0098F9002814BF0125002502D1204601F089
:104A2C0071FB284638BD00002DE9F04788B00446DC
:104A3C00DDF840809DF850A0894617461E46FFF7CA
:104A4C00E4FF0546002840F0CB80214601A8FFF783
:104A5C008FFEA16C002940F08780B4F84C20A16B2C
:104A6C002B46204601F0BCFB002879D0012323847F
:104A7C009DF85430E269042B40F08180594B186842
:104A8C0099889B79ADF80C108DF80E300290C2F815
:104A9C0005009DF80E30BDF80C10A2F80910D37269
:104AAC000C23B8F1000F7FD09DF848009DF84420EE
:104ABC00400140EAC20040F00600C0B2BAF1000F5B
:104ACC0001D100F0FD001FB1002E6FD140F080002D
:104ADC00E269D054226DE169581C12120A549A1CD6
:104AEC00E169206D88540333E26949462046FFF79B
:104AFC0071FF0346B8F1000F0BD0E2694146204626
:104B0C00FFF768FFE269139903462046FFF762FF3F
:104B1C00034667B1E26939462046FFF75BFF03465F
:104B2C002EB1E26931462046FFF754FF0346053BA0
:104B3C00E2699BB210212046FFF7F1FE00F0E0FA8B
:104B4C00C4E909004FF47A76204601F081FA80BB63
:104B5C0000F0D6FAA36AC01A236D73439842F3D9B6
:104B6C00204601F0CFFA34E002A800F047FEB4F87A
:104B7C004C202B4602A9204601F0EFF974E71A4BA2
:104B8C00186859681B7A0DF1080CACE803008CF816
:104B9C00003002AB03CBC2F80500C2F809109CF838
:104BAC00003053730E237CE7022087E740F0C000EF
:104BBC008EE702A92046FFF751FE0428D0D1E36905
:104BCC00DE78002ECCD100F09BFA0125A06284F88F
:104BDC002C6001A8FFF7D7FD284608B0BDE8F08788
:104BEC000025F9E7656C0D006C6C0D007FB5012399
:104BFC000422CDE904320023CDE90233CDE90033A0
:104C0C001A46FFF711FF07B05DF804FB2DE9F74FCB
:104C1C00DDF83C809DF834509DF8389004468B4666
:104C2C0016461F46FFF7F1FE8246002851D021465A
:104C3C0001A8FFF79DFDB4F85420E069002101F0B4
:104C4C0007FF0523E26959462046FFF7C3FE6B1E9A
:104C5C00012B15D8218CE369013189B22184091209
:104C6C001954421CE369218C92B20230995480B2DF
:104C7C00B8F1000F04D0238C5A1C2284A8F8003001
:104C8C0000210B188F42E2699BB20AD9B4F854C0C8
:104C9C009C4506D916F801C002F803C0013189B24F
:104CAC00EFE79DF8301000290CBF30213121B9F10C
:104CBC00000F01D041F00801022D0ED141F004018A
:104CCC00053B9BB22046FFF72AFE824601A8FFF760
:104CDC005AFD504603B0BDE8F08F012D08BF41F0DE
:104CEC000201EDE71FB5089C0394002402949DF883
:104CFC001C4001949DF818400094FFF787FF04B006
:104D0C0010BD30B587B0044610460591049201F0F1
:104D1C00DDFE00250346CDE90155DDE904210095B2
:104D2C002046FFF7DFFF07B030BD73B504460E46D3
:104D3C00FFF76BFE0546C8B1214601A8FFF718FD29
:104D4C00E36962221A70E36902225A70E369321233
:104D5C009A70E369DE70E1690422204600F0DBFF03
:104D6C00051E01A818BF0125FFF70DFD284602B04E
:104D7C0070BD73B504460E46FFF747FE0546C8B135
:104D8C00214601A8FFF7F4FCE36972221A70E3696B
:104D9C0002225A70E36932129A70E369DE70E1699B
:104DAC000422204600F0B7FF051E01A818BF0125FC
:104DBC00FFF7E9FC284602B070BD2DE9F04F2DED50
:104DCC00028B87B000AF0446FFF71FFE8146F8B197
:104DDC00214607F11400FFF7CBFC00F091F9226D8E
:104DEC004FF47A735343A26A821A9A42064603D846
:104DFC00626A821A934221D294F82C307BB12046FD
:104E0C0001F080F94FF0000907F11400FFF7BBFC2B
:104E1C0048461C37BD46BDEC028BBDE8F08FE269FD
:104E2C00C0211170E2695370E1690222204600F042
:104E3C0072FFC4E90966012384F82C30204601F086
:104E4C0007F90028E0D007F113012046FFF706FD13
:104E5C0083460028D8D0E369A662197801F0F002E5
:104E6C00302A7FD1D4F830A0BAF1000FCCD097F80B
:104E7C0013C06A4608EE102A03EB0C0255789178A1
:104E8C0001EB05218DB205F108026946D208A1EBB0
:104E9C00C20295460CF10302FA6003EB020E0DEB15
:104EAC0005026846C7F808D07A60D7E901218A4222
:104EBC0006D00A461EF8018B02F8018BBA60F4E7A3
:104ECC000022425593F80080F96808F00608ABEB15
:104EDC000C02033AB8F1020FA2EB0502294425D1CA
:104EEC0013F801E01944023A91F801B00CF10501F4
:104EFC00294419440BEB0E2BD047E36940221A705E
:104F0C00E3691FFA8BFB83F80180E3694FEA2B22DC
:104F1C009A70E36983F803B0E1690422204600F03B
:104F2C00FAFE666218EE103A9D466DE7B8F1040F72
:104F3C0015D113F801E01944023A91F801B00CF1C3
:104F4C000501294419440BEB0E2BD047E369502281
:104F5C001A70E36902221FFA8BFB5A70D5E71944C9
:104F6C00D047DFE7502A08D19A78D97801EB022193
:104F7C0089B22046FFF7D9FE46E7402A12D1626B70
:104F8C00002A3FF441AFBBF1040F7FF43DAF11F0A9
:104F9C00060F7FF439AF9978D87800EB012080B2F6
:104FAC00904731E7602A08D19A78D97801EB022131
:104FBC0089B22046FFF7DDFE26E7702ADFD0902A63
:104FCC003FF422AFC02A0AD1D0221A70E369002222
:104FDC005A70E1690222204600F09DFE14E7D02AA7
:104FEC0004BF002384F82C300EE7F7B504460F46B7
:104FFC001646FFF70AFD054610B3214601A8FFF738
:10500C00B7FB238C01339BB2EBB12384238CE26975
:10501C001B125371E369228C9A71E269072339469A
:10502C002046FFF7D7FCE3691E54043883B2E269CB
:10503C0082212046FFF773FC054601A8FFF7A3FB6E
:10504C00284603B0F0BD0123DFE70022FFF7CDBFF8
:10505C0038B50546FFF7D9FC10B12846FFF79DFC83
:10506C00E86908B1FFF715F805F1380000F014FDF8
:10507C00AC690A4B2B607CB16368013B63605BB924
:10508C00236820469B689847A368013BA3601BB923
:10509C0023682046DB689847284638BD746D0D00A0
:1050AC0008B5024B1B681B6B019308BD480203003B
:1050BC0008B5024B1B689B6B019308BD48020300AB
:1050CC0008B5024B1B681B6C019308BD480203001A
:1050DC0008B5024B1B685B6C019308BD48020300CA
:1050EC0008B5024B1B689B6C019308BD480203007A
:1050FC0008B5024B1B685B68019308BD18020300DE
:10510C0008B5024B1B685B69019308BD18020300CC
:10511C0008B5024B1B689B68019308BD2C02030069
:10512C0008B5024B1B68DB68019308BD2C02030019
:10513C0008B5024B1B685B69019308BD2C02030088
:10514C0008B5024B1B689B69019308BD2C02030038
:10515C0008B5024B1B68DB69019308BD2C020300E8
:10516C0008B5024B1B681B6A019308BD2C02030097
:10517C0008B5024B1B685B6A019308BD2C02030047
:10518C0008B5024B1B681B6A019308BD280203007B
:10519C0008B5024B1B685B6A019308BD280203002B
:1051AC0008B5024B1B689B6A019308BD28020300DB
:1051BC0008B5024B1B68DB6A019308BD280203008B
:1051CC0008B5024B1B681B6B019308BD280203003A
:1051DC0008B5024B1B685B6B019308BD28020300EA
:1051EC0008B5024B1B681B6C019308BD2802030019
:1051FC0008B5024B1B685B69019308BD6C02030088
:10520C0008B5024B1B685B69019308BD640203007F
:10521C0008B5024B1B681B6A019308BD64020300AE
:10522C0008B5024B1B689B6A019308BD640203001E
:10523C0008B5024B1B689B68019308BD680203000C
:10524C0008B5024B1B68DB68019308BD68020300BC
:10525C0008B5024B1B689B69019308BD380203001B
:10526C0008B5024B1B68DB69019308BD38020300CB
:10527C0008B5024B1B681B6A019308BD380203007A
:10528C0008B5024B1B689B6A019308BD38020300EA
:10529C0008B5024B1B681B6B019308BD3802030059
:1052AC0008B5024B1B689B6B019308BD38020300C9
:1052BC0008B5024B1B68DB69019308BD3002030083
:1052CC0008B5024B1B681B6A019308BD3002030032
:1052DC0008B5024B1B681B68019308BD3C02030018
:1052EC0008B5024B1B68DB68019308BD3C02030048
:1052FC0008B5024B1B681B69019308BD3C020300F7
:10530C0008B5024B1B685B69019308BD3C020300A6
:10531C0008B5024B1B689B69019308BD3C02030056
:10532C0008B5024B1B68DB69019308BD3C02030006
:10533C0008B5024B1B681B6A019308BD3C020300B5
:10534C0008B5024B1B689B6A019308BD3C02030025
:10535C0008B5024B1B681B68019308BD4C02030087
:10536C0008B5024B1B685B68019308BD4C02030037
:10537C0008B5024B1B681B69019308BD4C02030066
:10538C0008B5024B1B685B69019308BD4C02030016
:10539C0008B5024B1B689B69019308BD4C020300C6
:1053AC0008B5024B1B68DB69019308BD4C02030076
:1053BC0008B5024B1B681B6A019308BD4C02030025
:1053CC0008B5024B1B681B6D019308BD60020300FE
:1053DC0008B5024B1B685B68019308BD20020300F3
:1053EC0008B5024B1B685B69019308BD20020300E2
:1053FC0008B5024B1B68DB6A019308BD2002030051
:10540C0008B5034B1B68D3F88830019308BD000026
:10541C002002030008B5034B1B68D3F894300193AA
:10542C0008BD00002002030008B5024B1B68DB69B5
:10543C00019308BD4402030008B5024B1B68DB6BEB
:10544C00019308BD4402030008B5024B1B685B685E
:10545C00019308BD4002030008B5024B1B689B6812
:10546C00019308BD4002030008B5024B1B68DB68C2
:10547C00019308BD4002030008B5024B1B681B6971
:10548C00019308BD4002030008B5024B1B685B6921
:10549C00019308BD4002030008B5024B1B689B69D1
:1054AC00019308BD4002030008B5024B1B68DB6981
:1054BC00019308BD4002030008B5024B1B681B6A30
:1054CC00019308BD4002030008B5024B1B681B6B1F
:1054DC00019308BD4002030008B5024B1B685B6BCF
:1054EC00019308BD4002030008B5024B1B681B6CFE
:1054FC00019308BD4002030008B5024B1B685B6CAE
:10550C00019308BD4002030008B5024B1B681B68E1
:10551C00019308BD1C02030008B5024B1B685B68B5
:10552C00019308BD1C02030008B5024B1B689B6865
:10553C00019308BD1C02030008B5024B1B68DB6B12
:10554C00019308BD1C02030008B5024B1B685B6C81
:10555C00019308BD1C0203000021FFF741BF10B5E9
:10556C000446006808B1FFF7BBFD204610BD10B51E
:10557C008368044613B1032201469847204610BDA8
:10558C0010B5064C002320462360FFF7A1FD2046F2
:10559C00034A0449BDE8104001F022B950E603204B
:1055AC00A0E403206B550D00002240681146FFF764
:1055BC0083BF002240681146FFF78EBF406800226F
:1055CC00FFF782BF4068002281F00101FFF76CBF3A
:1055DC00002340681A461946FFF75EBF0023406857
:1055EC001A461946FFF750BF002240681146FFF7D4
:1055FC0043BF002240681146FFF72EBF40680022CF
:10560C000221FFF731BF002340681A46FFF71CBF89
:10561C00024B03225A60024A1A60704754E6032078
:10562C00886C0D007047F8B5064615460C468F1869
:10563C00BC4206D0336814F8011B9B68304698476F
:10564C00F6E72846F8BD007C0022FFF799BD007CE8
:10565C000021FFF79DBD007C0021FFF7A1BD007C60
:10566C000021FFF7A5BD007C0021FFF7A9BD10B5F7
:10567C001421044601F0B9F8204610BD10B54FF4C2
:10568C007A73044608460021C4E90113034B2360D6
:10569C0020741146FFF7A4FD204610BDC46C0D000C
:1056AC00004700002DE9FF4100241D460F4690469F
:1056BC000646FFF74DFDA5424FF00403ADF80D4033
:1056CC008DF80C308DF80F40A2BF9DF828308DF866
:1056DC000E3003AC0749009443463A463046A8BF07
:1056EC008DF80D50FFF72CFDB0FA80F0400904B096
:1056FC00BDE8F081AD560D00FFF73ABDFFF730BDA8
:10570C00704710B51821044601F06FF8204610BD03
:10571C00F0B5037D062B8DB00E4600F104074FF05B
:10572C00000412D000F1080515F8011D0A223046BC
:10573C0000F075F9AF42044419D0002CF4D02E219E
:10574C00304600F053F90444EEE72F236A463946FD
:10575C000A208DF80040FFF753FD684601F0B6F9BA
:10576C0033680246DB686946304698470446204653
:10577C000DB0F0BD10B5054B0446112240F8043BAA
:10578C00002101F065F9204610BD00BFEC6C0D0046
:10579C000346074A10B543F8042B01F1100251F8E7
:1057AC00044B43F8044B9142F9D10A781A7010BD9E
:1057BC00EC6C0D00037D042B04D14068003818BF3D
:1057CC0001207047062B07D143683BB983682BB97E
:1057DC00C3681BB90069F1E70020704701207047CE
:1057EC0010B59DF8084044EA032343EA024242EA1A
:1057FC00016104234160037510BD000013B5054B16
:10580C000360CB7800938B784A780978FFF7E8FF30
:10581C0002B010BDEC6C0D00014B024A1A607047CF
:10582C005CE60320F86C0D00002340681A46FFF775
:10583C000BBE406800220221FFF716BE0022406812
:10584C001146FFF709BE002240681146FFF714BE4F
:10585C00002340681A461946FFF716BE002340681D
:10586C001A461946FFF718BE40680021FFF73CBEE8
:10587C0040680021FFF740BE4068002281F0010122
:10588C00FFF712BE40680022FFF71EBE00224068E0
:10589C001146FFF721BE002240681146FFF70CBEEF
:1058AC002DE9F043002495B016460D460746FFF748
:1058BC0061FF214618220EA8009401F0C9F840237C
:1058CC00CDE90C3421466B460CAA3046FFF7B8FCE8
:1058DC00044600284CD1024601216868FFF7CCFD34
:1058EC000221804622466868FFF7C6FD009E81466D
:1058FC002146002E3CD000293AD17368022B03D0EC
:10590C000A2B11D0F669F4E7B8F1000F0AD07169CF
:10591C0006A8043107ADFFF771FF0FCD3C1D0FC476
:10592C002B6823704146EDE7B9F1000F01D14946D0
:10593C00E8E77469102201A801F08AF806238DF8B3
:10594C00143001AD04F108031834186859682A465C
:10595C0003C20833A3421546F7D101A906A807AD27
:10596C00FFF716FF0FCD3C1D0FC42B682370DEE72D
:10597C000098FFF75DFC384615B0BDE8F0830000D9
:10598C00024B034A1A6000225A60704760E60320FB
:10599C00046D0D00F8B506460D468F180024BD4267
:1059AC000CD0336815F8011B9B6830469847031ED2
:1059BC0001DB1C44F3E7002C08BF1C462046F8BD55
:1059CC0013B50446084659B1019101F07FF82368DC
:1059DC000199DB680246204602B0BDE8104018472A
:1059EC0002B010BD08B5FFF7EBFF08BD03689B685C
:1059FC00184738B50D210546FFF7F8FF0A21044674
:105A0C002846FFF7F3FF204438BD38B50546FFF7AD
:105A1C00D7FF04462846FFF7ECFF204438BD30B5CD
:105A2C008BB000238DF82430012A98BF0A2209ACD0
:105A3C000D46B1FBF2F101FB125303F0FF03092BEE
:105A4C0094BF30333733DBB2AA4204F8013DEFD9AF
:105A5C002146FFF7B5FF0BB030BD10B50446FFF77C
:105A6C0086FD204610BD00000348044A044900236B
:105A7C00836000F0B5BE00BF68E60320A0E40320FD
:105A8C00675A0D0010B5044608462170FFF710FC4C
:105A9C0000236360204610BD10B504460068FFF774
:105AAC003BFD204610BD10B50446006808B1FFF759
:105ABC0033FD0023C4E90133236010BD38B504461F
:105ACC000D4600680131FFF72FFD10B1C4E9000548
:105ADC00012038BD10B50368044623B143688B42DE
:105AEC0001D3012010BD2046FFF7E8FF0028F9D0B4
:105AFC00A368002BF5D122681370F2E737B50D4679
:105B0C00114601920446FFF7E5FF019A28B9204699
:105B1C00FFF7C9FF204603B030BDA26029462068BC
:105B2C0000F088FF2268A3680021D154F2E700231B
:105B3C0013B5C0E9003304468360037341B10846D2
:105B4C00019100F0C3FF019902462046FFF7D6FFF2
:105B5C00204602B010BD38B5054600680C4668B149
:105B6C006A688B689A4207D3096800F0A7FFA3689C
:105B7C00AB600023A36038BDFFF7CEFC23682B601D
:105B8C0063686B60A368AB600023C4E90033F1E782
:105B9C00884210B5044605D00B682BB18A681946AB
:105BAC00FFF7ACFF204610BDFFF77DFFFAE78842F8
:105BBC0010B5044601D0FFF7CEFF204610BD13B53B
:105BCC00044659B10846019100F080FF0199024644
:105BDC002046FFF793FF204602B010BDFFF763FF8E
:105BEC00F9E770B505460E4609B9002070BD6AB1DB
:105BFC00846814442146FFF76DFF0028F5D028680F
:105C0C00AB683146184400F059FFAC600120EDE759
:105C1C008A680968FFF7E5BF13B50446084651B119
:105C2C00019100F053FF01990246204602B0BDE8F5
:105C3C001040FFF7D6BF02B010BD08B582683AB964
:105C4C0021B10878B0FA80F0400900E0012008BDCD
:105C5C00006809B90078F5E700F026FFF2E70000CC
:105C6C00F8B59A420F461D460C4988BF1346144698
:105C7C00064684BF2C461D46FFF759FFBA68A24260
:105C8C000AD33968AA4294BFC4EB0202C4EB0502E2
:105C9C0021443046FFF732FF3046F8BD716B0D00E2
:105CAC0010B50446006818B1FFF736FC00232360DA
:105CBC0010BD10B50446FFF7F3FF204610BD0000E1
:105CCC0010B5094B094C022200201A60084B2060C9
:105CDC00A080A071A360FFF77BFB2046054A064914
:105CEC00BDE8104000F07CBD84E6032078E603207C
:105CFC000000FFFFA0E40320BF5C0D0013B5036898
:105D0C008DF80710DC6B01224FF0FF330DF107010A
:105D1C00A04702B010BD10B40368DC6B4FF0FF332A
:105D2C00A4465DF8044B604713B5134602688DF822
:105D3C000710D46B0DF107010122A04702B010BD72
:105D4C00704738B543691A68002A054610DAB3F86B
:105D5C008620B3F884309A420AD103681B699847AD
:105D6C00044628B92B682846DB6A9847204638BD7C
:105D7C000120FCE743691868C043C00F70477047A7
:105D8C00064B994210B500F10C0405D0084600F002
:105D9C0031FD002808BF0024204610BD786C0D0092
:105DAC0010B5AC21044600F020FD204610BDFEF7D6
:105DBC006EB92DE9F0414FF0000886B01D46C0F8D1
:105DCC00048004460E4617464146102202A800F0F5
:105DDC003FFE6B1C09D04FF47A70B5FBF0F3CDE9A4
:105DEC00023800FB1353584304906069102300934E
:105DFC00006802AB41F2050240F6FF71FFF728FA8A
:105E0C00002807DAFFF798FB03686360002006B0F0
:105E1C00BDE8F0816069002300683A463146FFF71F
:105E2C0037FA031EEEDB1846F1E7000038B584693B
:105E3C000A4B036005467CB16368013B63605BB948
:105E4C00236820469B689847A368013BA3601BB955
:105E5C0023682046DB689847284638BD746D0D00D2
:105E6C0010B50446FFF7E2FF20461C2100F0BDFCF4
:105E7C00204610BD70B54D69054B04468C3544F871
:105E8C00043B06460FCD0FC42B682370304670BD03
:105E9C00EC6C0D0010B54369B3F88620B3F8843070
:105EAC009A42044605D06369B3F8842013441879E8
:105EBC0010BD03681B6998470028F4D14FF0FF30E0
:105ECC00F6E710B54369B3F88620B3F884309A42EC
:105EDC00044608D06369B3F88420511CA3F88410DD
:105EEC001344187910BD03681B6998470028F1D139
:105EFC004FF0FF30F6E7F8B543691746B3F8862044
:105F0C00B3F884309A4205460E4616D06969B1F84A
:105F1C008430B1F88640E41ABC4228BF3C460433B6
:105F2C0022461944304600F085FD6A69B2F8843087
:105F3C002344A2F884302046F8BD03681B699847B7
:105F4C000028E3D14FF0FF34F5E742690023A2F8B3
:105F5C0084304269A2F8863070472DE9F0411F4623
:105F6C0003680C46DB6A8AB0054616469847237DC3
:105F7C00D5F81480042B0CBF02200A200622012124
:105F8C00FFF78EF9C8F800006B691B68002B08DA64
:105F9C002B682846DB6A0024984720460AB0BDE8E7
:105FAC00F0812846FFF7D1FFB7B1002303A9F8B25F
:105FBC000393ADF81030FFF71BF90028E8D168699E
:105FCC0006230093006803AB41F20B0240F6FF710D
:105FDC00FFF73EF90028DBD11C22002103A800F0BA
:105FEC0037FD237D042B1DD14FF407733046ADF8DC
:105FFC000C30FFF715F9ADF80E006068FFF708F9E3
:10600C0004906B691C22186803A9FFF731F900286A
:10601C00BED104340FCC6D698C350FC523682B7041
:10602C000124BAE740F61C233046ADF80C30FFF7DC
:10603C00F7F805AEADF80E00231D04F1140718682F
:10604C005968324603C20833BB421646F7D1D8E72B
:10605C0030B54269B2F886308BB004462BB1B2F839
:10606C0084209A4201D1FFF770FF6169086800280B
:10607C0018DBB1F886507F2D14D804310823C5F1F4
:10608C0080022944FFF7FCF8002813DD6369B3F89C
:10609C0086200AB9A3F884206369B3F886201044DB
:1060AC00A3F886006369B3F88600B3F88430C01A8D
:1060BC000BB030BDFFF740FA03680B2BF2D0FFF7A3
:1060CC003BFA03680B2BEDD020230025CDE90235DC
:1060DC00FFF732FA03680193084B0949009302AAAF
:1060EC002B463220FFF76CF963691868FFF7B8F894
:1060FC0063694FF0FF321A60D4E700BF3F6D0D00AB
:10610C00386D0D0010B5436904461868002801DB92
:10611C00FFF7A6F863694FF0FF321A60606911222D
:10612C0000218C3000F094FC2046BDE81040FFF7B5
:10613C000CBF10B5002304460160C0F884308830D1
:10614C00FFF718FB204610BD73B500234FF47A728D
:10615C00C0E901320E4A0361026043610446AC207F
:10616C000191FDF790FF051E05F10C0608D00123E7
:10617C00C5E90133074B01992B603046FFF7D9FF76
:10618C002046C4E90565FFF7E0FE02B070BD00BF14
:10619C00746D0D00586D0D0010B54FF0FF310446B5
:1061AC00FFF7D2FF204610BD10B50446006800284A
:1061BC0001DBFFF755F8204610BD0C30FFF7F4BF9C
:1061CC0070B586B0064601AD6846FFF717FB0FCDDC
:1061DC00341D0FC42B682370304606B070BD000010
:1061EC002DE9F0439846036893B00D460024DB6A12
:1061FC0006461746984728466B4622462146009489
:10620C00FFF71EF80546002863D1009B002B4BD0EE
:10621C005B69002B48D006A8FFF7ACFA009B5C69C1
:10622C006378022B04D1211D06A8FFF7C9FF26E0D5
:10623C000A2B24D11122294601A800F009FCA368DD
:10624C00002B38D004F108030DF1040C1834186835
:10625C005968624603C20833A3429446F7D1062319
:10626C0001A90CA88DF81430FFF792FA0DF1340C3B
:10627C00BCE80F0007AC0FC4DCF80030237006A894
:10628C00FFF798FA80B1336807ADD3F82090124B22
:10629C000C930FCD0DAC0FC42B6823703A464346BC
:1062AC000CA93046C84705460098FEF7C1FF2846A2
:1062BC0013B0BDE8F083E368002BC3D14FF6FF7039
:1062CC00D4F81090FEF7A4FF8145BBD104F1140162
:1062DC00AAE72546E8E700BFEC6C0D00024B1A68F4
:1062EC00024B1A60704700BF38E4032088E6032095
:1062FC0070474174704708B5007CFFF721F820EA1D
:10630C00E07008BD08B5007CFEF7F2FF20EAE070F3
:10631C0008BD08B5007CFEF7FBFF40EAE07008BD45
:10632C0008B5007CFEF7ECFF40EAE07008BD007C8D
:10633C00FEF7F6BF37B5457C04462DB1207C03B083
:10634C00BDE83040FEF7CCBF007C0191FEF7F8FFB2
:10635C0000280199F2DC284603B030BD10B5142199
:10636C00044600F042FA204610BD000010B54FF074
:10637C00000C0446084611464FF47A72C4E901C277
:10638C00044A22600122207462741A46FEF7A0FFB0
:10639C00204610BDDC6D0D0013B50E4C2178BFF3FB
:1063AC005B8F11F0010112D120460191FDF773FEB4
:1063BC00019960B1084A094B0948FFF7D7FF2046FD
:1063CC00FDF76EFE074A0849054800F009FA044833
:1063DC0002B010BD8CE6032090E6032014E70320E6
:1063EC0098E70320A0E40320FD620D004174704780
:1063FC00704708B50021007CFEF7CAFF40EAE07048
:10640C0008BD08B50121007CFEF7C2FF40EAE07030
:10641C0008BD08B5007CFEF7B3FF20EAE07008BDAC
:10642C0008B5007CFEF7A4FF20EAE07008BD13B5A8
:10643C000446007C0191FEF7A3FF0028019901DCC2
:10644C00607C20B1207CFEF7ABFF20EAE07002B04C
:10645C0010BD007CFEF7ACBF10B51421044600F053
:10646C00C4F9204610BD000010B54FF47A730446F1
:10647C0008460021C4E90113044B23600123207456
:10648C0063741146FEF764FF204610BD0C6E0D00C0
:10649C00007C0022FEF764BF10B5142204460021D4
:1064AC0000F0D6FA204610BD10B5104C88B003A8E9
:1064BC00FFF7F2FF2178BFF35B8F11F0010111D1CF
:1064CC0020460191FDF7E7FD019958B103AA084850
:1064DC00FFF7CAFF2046FDF7E3FD064A06490448CC
:1064EC0000F07EF9024808B010BD00BFACE70320F5
:1064FC00B0E70320A0E40320FD630D0000224068F8
:10650C001146FEF7B9BF002240681146FEF7D4BF12
:10651C00002240681146FEF7DFBF40680022FEF7FC
:10652C00D3BF4068002281F00101FEF7BDBF0023FC
:10653C0040681A461946FEF7AFBF002340681A465A
:10654C001946FEF7A1BF002240681146FEF784BF32
:10655C00406800220221FEF787BF002340681A46DC
:10656C00FEF772BF024B04225A60024A1A6070474F
:10657C00C4E703203C6E0D00014B1860704700BF50
:10658C003CE4032008B50B4B43B1FFF78DFF0368C8
:10659C001B699847002801DDAFF30080064B43B11F
:1065AC00FFF7FAFE03681B699847002801DDAFF37B
:1065BC00008008BD000000000000000008B5FFF7D7
:1065CC00E1FFFEF79DFD014B186008BDD4E70320E9
:1065DC000248034A0349121A00F02CBA00F40320B3
:1065EC0004F40320906F0D0007B5002300931A46A6
:1065FC006FF07701FEF70EFF03B05DF804FB0000AF
:10660C0007B543880A2B08D0502B0BD1094B1B68BC
:10661C004BB103B05DF804EB1847FFF7E5FF03B08F
:10662C005DF804FB002300931A466FF07701FEF728
:10663C00F1FEF4E7D0E7032038B5124C1248134DA5
:10664C000021FEF781FF2368AB42114B0CBF0122E6
:10665C0000221A7002D0FFF7BBFF2560FEF748FD41
:10666C00044600F0FDF90B4B13B12046AFF300804C
:10667C0000210848FEF7E0FEBDE83840064800213E
:10668C00FEF7BEBE00F4032085650D001E1C279A84
:10669C00CCE70320000000000D660D00232813B585
:1066AC0002D9002002B010BDA0F10B03022B1AD8A6
:1066BC00174C2178BFF35B8F11F001010BD12046F1
:1066CC000191FDF7E8FC019928B11248FFF7DAF9BE
:1066DC002046FDF7E5FC0F4B1878FEF7F1FD00287E
:1066EC00DFD10120DEE7012809D800F051F80021A4
:1066FC00007CFEF76DFD80F00100C0B2D2E70938D6
:10670C000128EED8FFF748FE007CFEF711FEF2E7F9
:10671C0044E6032048E60320232838B504460D46FA
:10672C000AD8FF2908D0FFF7B9FF28B1294620461F
:10673C00BDE83840FEF7ECBC38BD10B50446FEF79A
:10674C00EFFC031FDBB2012B08D92046FFF7A6FF95
:10675C0020B12046BDE81040FEF7EABC002010BD79
:10676C0038B500232025438014230446038085601C
:10677C0005610649284600F03AF80449606028464D
:10678C0000F035F8E060204638BD00BF706E0D009B
:10679C0030B50F4D2978BFF35B8F11F0010487B032
:1067AC0013D12846FDF777FC78B101A8FFF7D8FF85
:1067BC0001AA21460748FEF761FF2846FDF770FC49
:1067CC00054A0649034800F00BF8024807B030BDF3
:1067DC00D8E70320DCE70320A0E4032031560D00AA
:1067EC000B460146184600F017B9FDF750BCFDF7F3
:1067FC004CBC0000014900F0F9B800BF8C6E0D00D4
:10680C007FB500241023CDE90234036800949E69FF
:10681C008DF8044015466B461268B0479DF804305D
:10682C0003F00603062B03BF009B2B6001202046C0
:10683C0004B070BD0098904214BF01200620704730
:10684C0010B5034B0360044600F0CDF8204610BD94
:10685C00CC6E0D0010B50446FFF7F2FF2046082160
:10686C00FFF7C3FF204610BD2DE9F0411F46DDE9BF
:10687C000834DDF8188098450646154607D1079967
:10688C0000F0B4F818B165710020BDE8F08139460C
:10689C00304600F0ABF80028F6D00123C4F8008095
:1068AC002571A371F0E738B515461C4600F09EF82B
:1068BC0020B10823E36006232560237138BD73B52E
:1068CC0005460C4601921E4600F090F850B9032E76
:1068DC0008D82368019A5B692946204602B0BDE8B6
:1068EC007040184702B070BD10B5034B03600446EE
:1068FC00FFF7A6FF204610BD2C6F0D0010B5044607
:10690C00FFF7F2FF20460C21FFF76FFF204610BD6A
:10691C00F7B5089F974205460E4614460AD0A8685C
:10692C0002680897156A31462246AC4603B0BDE8AA
:10693C00F04060471946019300F058F8019B00287D
:10694C00EDD0062003B0F0BD2DE9F14F0D461946F0
:10695C00DDE90A4BDDE90CA681461746984600F0A6
:10696C0045F890B1002D3460377109DB61198A4507
:10697C000CBF06210121B171002001B0BDE8F08FE0
:10698C000235F9D10123B371F6E7544506D15946C6
:10699C00484600F02BF808B17771EDE7D9F80800FC
:1069AC000368CDE90CA6CDE90A4BDC693A464346AF
:1069BC002946A44601B0BDE8F04F60472DE9F041EF
:1069CC0007460C4615461E46FFF76DFF48B9B868DA
:1069DC0003689F692A4633462146BC46BDE8F04110
:1069EC006047BDE8F081704700207047814208B5D0
:1069FC000ED0406803782A2B0CD049680B782A2BD0
:106A0C0008BF013100F050F8B0FA80F0400908BD21
:106A1C000120FCE70020FAE710B5054C13462CB119
:106A2C000A4601460220AFF3008010BD2046FCE769
:106A3C00000000000A44914200F1FF3300D170477E
:106A4C0010B511F8014B03F8014F9142F9D110BD6B
:106A5C0002440346934200D1704703F8011BF9E747
:106A6C0038B50D4B1D68AB6B04467BB91820FEF78F
:106A7C004BFD0A4A0A4BA863C0E90023094B83600B
:106A8C000B23838101220023C0E90423AB6B00227A
:106A9C001C615A6138BD00BF3CE403200E33CDAB02
:106AAC0034126DE6ECDE050010F8012B11F8013BF9
:106ABC00012A28BF9A42F7D0D01A7047034611F822
:106ACC00012B03F8012B002AF9D17047034613F868
:106ADC00012B002AFBD1181A013870471D400D00FC
:106AEC0059400D0081400D0085400D000000000054
:106AFC006D61646C69627300554E50415553454449
:106B0C0000696E207468652066616C736500416E67
:106B1C007377657220312068617320776F6E3A202D
:106B2C0000416E7377657220322068617320776F35
:106B3C006E3A2000416E7377657220332068617362
:106B4C0020776F6E3A200054686973207761732048
:106B5C0074686520616E737765722073656C65630C
:106B6C007465643A20006C61622E74686577636C9E
:106B7C002E636F6D0041646A656374697665004EBF
:106B8C006F756E00506C7572616C206E6F756E0057
:106B9C0041207661636174696F6E20697320776838
:106BAC00656E20796F752074616B6520612074723D
:106BBC00697020746F20736F6D65200020706C619C
:106BCC006365207769746820796F75722000206680
:106BDC00616D696C792E20557375616C6C792079B7
:106BEC006F7520676F20746F20736F6D6520706CEC
:106BFC006163652074686174206973206E656172CD
:106C0C0020612F616E2000206F72207570206F6ED6
:106C1C0020612F616E2000202E204120676F6F6451
:106C2C00207661636174696F6E20706C616365209E
:106C3C006973206F6E6520776865726520796F7552
:106C4C002063616E207269646520005374617274F4
:106C5C0020766F74696E672E0000044D51545404F5
:106C6C0000064D51497364700300000000000000E1
:106C7C0000000000000000000000000013560D0092
:106C8C0009560D00FF550D00F5550D00E9550D0089
:106C9C00DD550D0075580D007D580D00D1550D00BA
:106CAC00C9550D00BF550D00B5550D00AD580D0063
:106CBC00000000000000000031560D007B560D0056
:106CCC0053560D0033560D005B560D0063560D00E8
:106CDC006B560D0073560D00000000000000000004
:106CEC001D570D000D570D000F570D0061707000F2
:106CFC00000000000000000035580D003F580D004A
:106D0C0049580D0053580D005D580D0069580D0081
:106D1C0075580D007D580D0085580D0091580D00CB
:106D2C0099580D00A3580D00AD580D007769726984
:106D3C006E670072656376206572726F72203D20FB
:106D4C002564000000000000000000008B5D0D00B9
:106D5C00AD5D0D00C7610D00BB5D0D008D5D0D00BF
:106D6C000000000000000000395E0D006D5E0D009B
:106D7C00095D0D00235D0D005D600D00CF5E0D0003
:106D8C00A15E0D004D5D0D00675F0D00ED610D0006
:106D9C00035F0D0011610D004F5D0D00815D0D0055
:106DAC00355D0D00BF5D0D00815E0D0025592D2553
:106DBC006D2D25645425483A254D3A2553257A00E6
:106DCC0061736374696D65000000000000000000D1
:106DDC00FD620D0069630D0041630D00A1590D00AA
:106DEC0011630D002D630D001F630D003B630D003F
:106DFC00FF620D0003630D000000000000000000A6
:106E0C00FD630D0065640D003B640D00A1590D0080
:106E1C002D640D00FF630D000F640D005F640D0009
:106E2C001F640D00F9630D0000000000000000005D
:106E3C0067650D005D650D0053650D0009650D005E
:106E4C0047650D003B650D0075580D007D580D0014
:106E5C002F650D0027650D001D650D0013650D00D8
:106E6C00AD580D0000537431395F53705F6D616B19
:106E7C00655F7368617265645F7461670000000030
:106E8C00CC6E0D00716E0D002C6F0D00A06E0D0000
:106E9C00506F0D004E31305F5F63787861626976B8
:106EAC003131375F5F636C6173735F747970655FE9
:106EBC00696E666F4500000000000000946E0D00C6
:106ECC004D680D0061680D00F5690D00F5690D0048
:106EDC00CB680D000D680D00B3680D0075680D00D2
:106EEC0041680D002C6F0D00FC6E0D00946E0D00B2
:106EFC004E31305F5F637878616269763132305F32
:106F0C005F73695F636C6173735F747970655F69DC
:106F1C006E666F450000000000000000F06E0D0072
:106F2C00F5680D0009690D00F5690D00F5690D0096
:106F3C00CB680D000D680D00C9690D0055690D0079
:106F4C001D690D00CC6E0D00586F0D005374397413
:106F5C007970655F696E666F0000000001460D0078
:106F6C008D550D001D560D0025580D008D590D0029
:106F7C00755A0D00CD5C0D00E9620D0071650D00B8
:046F8C000000000001
:046F900000000000FD
:106F940005000000CC6D0D0040E40320000000005B
:106FA40000000000000000000000000000000000DD
:106FB40000000000000000000000000000000000CD
:106FC40000000000000000000000000000000000BD
:106FD40000000000000000000000000000000000AD
:106FE400000000000000000000000000000000009D
:0C6FF40000000000000000000000000091
:10700000FFFFFFFF00000102030405060708090A4D
:107010000B0C0D0E0F101112131415161718191A48
:087020001B1C1D1E1F2028008F
:047028007856341250
:04000003D000401CCD
:00000001FF
